:020000040800F2
:10000000A09901209D010008791E00085F190008D1
:10001000751E0008F90B00084B4C0008000000009A
:100020000000000000000000000000007D3D00080E
:10003000D511000800000000091F0008953E0008C7
:10004000B7010008B7010008B7010008B7010008B0
:10005000B7010008B7010008B7010008B7010008A0
:10006000B7010008B7010008B7010008B701000890
:10007000B7010008B7010008B7010008B701000880
:10008000B7010008B7010008B7010008B701000870
:10009000B7010008B7010008B7010008B701000860
:1000A000B7010008B7010008B7010008B701000850
:1000B000B7010008B701000885460008B70100082D
:1000C000B7010008B7010008B7010008B701000830
:1000D000B7010008BD480008F9490008B701000849
:1000E000B7010008B7010008B7010008B701000810
:1000F000B7010008B7010008B7010008B701000800
:10010000B7010008BD210008B7010008B7010008C9
:10011000B7010008B7010008B7010008B7010008DF
:10012000FD0D0008B7010008B70100084D0E0008DA
:10013000B7010008B7010008B7010008B7010008BF
:10014000B7010008B7010008B7010008B7010008AF
:10015000B7010008B7010008B7010008B70100089F
:10016000B7010008B7010008B7010008B70100088F
:10017000B7010008B7010008B7010008B70100087F
:10018000B7010008B7010008DFF80CD000F052FBFF
:1001900000480047DD8C0008A099012006488047F0
:1001A00006480047FEE7FEE7FEE7FEE7FEE7FEE75C
:1001B000FEE7FEE7FEE7FEE7D53E000889010008FE
:1001C0002DE9F05F0546002092469B46884606468C
:1001D000814640241BE0284641464746224600F01F
:1001E00075F953465A46C01A914110D31146184624
:1001F000224600F05CF92D1A67EB01084F462246B3
:100200000120002100F053F917EB00094E41201E98
:10021000A4F10104DFDC484631462A464346BDE8E6
:10022000F09F2DE9F0410024061B254671F10006E0
:1002300005DA01240027D0EB070067EB0101161E49
:1002400073F1000605DA0027D2EB0702012567EB00
:100250000303FFF7B5FF86460E4617469C46AC42A1
:1002600004D00025D0EB050E65EB010624B100207B
:10027000D2EB000760EB030C704631463A4663460A
:10028000BDE8F08140EA01039B0703D009E008C9FB
:10029000121F08C0042AFAD203E011F8013B00F84B
:1002A000013B521EF9D27047D2B201E000F8012B97
:1002B000491EFBD270470022F6E710B513460A46E6
:1002C00004461946FFF7F0FF204610BD30B505463D
:1002D0002A460B4612F8010B13F8014B08B1A04255
:1002E000F8D01CB1002802D06D1CF1E7284630BDC3
:1002F00010B5044604E00B7800F8013B03B1491C3B
:10030000521EF8D2204610BD421C10F8011B0029D5
:10031000FBD1801A704710B5002200E0521C835CAC
:100320008C5CA34201D1002BF8D1D8B2E1B2401AC3
:1003300010BD000070B50F4D00B92868002412E010
:100340000A4602E09E4203D0521C1378002BF9D1DA
:10035000DAB2224305D02BB124B1002100F8011BF1
:1003600004E00446401C0678002EE9D128602046AF
:1003700070BD0000B48000202DE9FE4F81EA030427
:1003800004F0004421F0004100944FF0000B23F0F2
:10039000004350EA01045ED052EA03045BD0C3F389
:1003A0000A54C1F30A552C44A4F2F3340194A0FB7F
:1003B0000254C1F3130141F48011C3F3130343F456
:1003C000801301FB024400FB034E840A970A44EAAF
:1003D000815447EA8357A4FB076802958D0A05FB01
:1003E00007854FEA932C04FB0C542705029D4FEA26
:1003F000065847EA1637B5EB08056EEB070C870E73
:10040000920E47EA811742EA8312A7FB0201B6EB7C
:100410000B0164EB00042B0D43EA0C335E1844EB34
:100420001C50DA465146E7FB0201C5F313044FEABC
:100430000B3343EA14534FEA0432019C43EA0603A8
:10044000A4F10C040294009CCDE900B400F05DF826
:1004500003B0BDE8F08F00200146F9E700F000424C
:1004600030F000400AD0C10D01F56071C0F31600F4
:1004700042EA0151C208400711437047002001467B
:10048000704730B50B46014600202022012409E0C8
:1004900021FA02F59D4205D303FA02F5491B04FA3D
:1004A00002F52844151EA2F10102F1DC30BD202A1C
:1004B00004DB203A00FA02F1002070479140C2F1BB
:1004C000200320FA03F3194390407047202A04DBED
:1004D000203A21FA02F00021704721FA02F3D040BD
:1004E000C2F12002914008431946704710B5141E0E
:1004F00073F1000408DA401C41F1000192185B41DD
:100500001A4301D120F0010010BD2DE9F04D9246B3
:100510009B4611B1B1FA81F202E0B0FA80F22032CA
:100520009046FFF7C4FF04460F4640EA0A0041EA3E
:100530000B0153465A46084313D0114653EA0100B3
:1005400019D0C8F140025046FFF7C0FF05460E46DD
:10055000504659464246FFF7AAFF084305D00120FE
:1005600004E020463946BDE8F08D0020054346EA08
:10057000E0762C4337430A986305E40AA0EB0800B1
:100580000022FD0A44EA47540A3002D50020014601
:10059000E9E7010510196941DDE9084500196941DC
:1005A000BDE8F04DA2E72DE9FE4F804681EA030049
:1005B000C00F0C46009021F0004123F00045B8EB3D
:1005C0000200A94105D24046214690461C460B46F2
:1005D000024623F00040104347D0270DC7F30A001E
:1005E000C3F30A510290401A019040286BDAC3F31A
:1005F000130040F4801B0098924620B10023D2EBF8
:10060000030A63EB0B0B01985946C0F140025046B8
:10061000FFF74DFF06460D4650465946019A00F039
:100620001BF910EB08006141002487EA115284EAAB
:10063000E7731A4340D0009A62B3019A012A4FEA45
:10064000075215DC001B61EB02014FF0004202EA89
:100650000752CDE90042001C41F5801132462B467D
:10066000FFF753FF03B0BDE8F08F40462146F9E79E
:10067000001B61EB0201001C41F5801300185B4177
:100680002018A2F5001747EB030140EAD570B61910
:100690006D4111E06D084FEA360645EAC0754FEA34
:1006A0000752001B61EB0201001C41F58011490853
:1006B0004FEA30000019514132462B4603B0BDE8E5
:1006C000F04FFFF713BF0098012240000023D0EB4A
:1006D000020263EBE073009821464FEAE074B8EB46
:1006E000000061EB0401E9E783F000435BE781F080
:1006F000004158E72DE9F04D81EA030404F0004B76
:1007000021F0004514464FF0000A23F0004150EA62
:10071000050220D054EA01021DD0C5F30A57024653
:10072000C5F31303C1F31300C1F30A5640F4801557
:1007300043F48013A7EB0608101BD64608F2FD38D9
:1007400073EB050002D308F1010801E092185B4148
:10075000B8F1000F03DA00200146BDE8F08D00205B
:100760004FF48011064684460EE0171B73EB050715
:1007700005D3121B63EB050306434CEA010C490841
:100780004FEA300092185B4150EA0107EDD152EA7E
:10079000030012D082EA040083EA0501084305D071
:1007A000101BAB4106D20122002306E000224FF0CD
:1007B000004302E06FF0010253101AEB06004CEB0D
:1007C000085110EB0A0041EB0B01BDE8F04DFFF7BB
:1007D0008DBEC1F30A52C1F3130140F2FF3341F45D
:1007E00080119A4202DA00200146704740F23343FA
:1007F0009A42A2F2334202DC5242FFF767BEFFF791
:1008000056BE000030B5041E71F1000404DB4FF049
:100810000044404264EB0101141E73F1000405DB47
:100820001C464FF00043524263EB0403994208BF59
:10083000904230BD064C074D06E0E06840F00103F1
:1008400094E8070098471034AC42F6D3FFF7A0FCB9
:10085000FC9003081C910308202A06DBCB17203AE2
:1008600041FA02F043EAE07306E041FA02F3D040B5
:10087000C2F12002914008431946704770B58C18A8
:1008800010F8015B15F0070301D110F8013B2A11A4
:1008900006D110F8012B03E010F8016B01F8016B91
:1008A0005B1EF9D12B0705D40023521E0DD401F88D
:1008B000013BFAE710F8013BCB1A921C03E013F856
:1008C000015B01F8015B521EF9D5A142D8D300208B
:1008D00070BD21B1826842F00102826003E082684B
:1008E00022F00102826070470021084A1168084A1C
:1008F0001140D0E900231A4383681A43C3681A439E
:100900001143044AC2F80413704700000423014055
:10091000E030FCFF0020014000B59DB000F0DAF8A7
:100920004C4800F0D7FA0121880501F0EFFA0121C7
:10093000080201F01BFB03208DF80C002020029020
:1009400000208DF80F0002A9434800F09BFF3820DB
:100950008DF8040000208DF805008DF806000120B8
:100960008DF8070001A801F089FA002004903B48A7
:1009700005903B480690002007904FF400500890E7
:10098000002009904FF480600A9040000B90800096
:100990000C9040110D9040020E9000200F9001200D
:1009A000109000201190129004A92A4800F0E6FB54
:1009B0000021284800F082FA00222A49254800F048
:1009C00040FB0121234800F031FB2749214800F07A
:1009D0005BFA012210211F4800F0B2FB00201390A7
:1009E0004FF48030149000201590169013A8FFF754
:1009F0007BFF002017908DF860008DF861004FF0AC
:100A00008050199040101A9000201B9001208DF802
:100A1000700017A911484C3800F068F80023012233
:100A200005210E484C3800F08BF801210B484C385A
:100A300000F027F80121074800F040FA012107489B
:100A40004C3800F013F8012104484C38FFF741FFFF
:100A50001DB000BD10640240000002404C20014067
:100A6000340000203C4000202080001021B182682A
:100A700042F48072826003E0826822F480728260B5
:100A8000704721B1826842F40072826003E082689C
:100A900022F400728260704710B504460A4800686C
:100AA00020F0010008490860081D04600749001F84
:100AB00000F0EAF90020064908600348006840F0A9
:100AC00001000149086010BD106402403CF00010B4
:100AD0000020014010B50121080201F057FA002161
:100AE0004FF4807001F052FA10BD000030B502469C
:100AF000002000235068104C20400D790C6844EA17
:100B000005242043506090680C4C2040D1E90354E8
:100B10002C438D682C434D7944EA45042043906072
:100B2000D06A20F470000C7D641EE4B2234340EAD6
:100B30000350D06230BD0000FFFEFFFCFDF7FFC098
:100B4000F0B504460D4600200021092D11DDE068B6
:100B5000A5F10A0606EB4607072606FA07F18843C1
:100B6000A5F10A0606EB460603FA06F10843E06023
:100B70000CE0206905EB4507072606FA07F18843D4
:100B800005EB450603FA06F108432061072A0FDA50
:100B9000606B561E06EB86071F2606FA07F1884390
:100BA000561E06EB860605FA06F10843606322E04E
:100BB0000D2A0FDA206BD61F06EB86071F2606FAD2
:100BC00007F18843D61F06EB860605FA06F10843AF
:100BD000206310E0E06AA2F10D0606EB86071F26EF
:100BE00006FA07F18843A2F10D0606EB860605FA20
:100BF00006F10843E062F0BD00BFFEE770B50025D6
:100C00004FF4803404E0802001F0C4FA00B103E026
:100C1000201EA4F10104F6D100BF0CB9032070BD61
:100C200040F2FF5001F08CFA2846F8E770B5044610
:100C300005E01648056805F0450000B100E0F8E75A
:100C400000BF042001F0A6FA20B1042001F078FAD8
:100C5000032070BD012001F09DFA20B1012001F0B8
:100C60006FFA0120F5E7094824380068A04201D056
:100C70001020EEE740F2FF5001F062FA03482038FE
:100C8000006808210840C0B2E3E70000342C0140AE
:100C900070B500264FF4803505E01148046804F073
:100CA000450000B103E0281EA5F10105F5D100BF04
:100CB00015B104F0040028B10326042001F040FA25
:100CC000304670BD012001F065FA18B101260120FF
:100CD00001F036FA40F2FF5001F032FA3046F0E708
:100CE000342C014010B505E00B48046804F04500C1
:100CF00000B100E0F8E700BF042001F04BFA20B19A
:100D0000042001F01DFA032010BD40F2FF5001F055
:100D100017FA0020F8E70000342C01402DE9F041DB
:100D200005460E464FF0000805E02048076807F02A
:100D3000450000B100E0F8E700BF042001F02AFA06
:100D400028B1042001F0FCF90320BDE8F081012066
:100D500001F020FA20B1012001F0F2F90120F4E7BE
:100D6000124824380068A84201D01020EDE740F274
:100D7000FF5001F0E5F90D482038046804F46040A4
:100D800018B9200C30804046DFE704F4005008B169
:100D90001320DAE704F4804008B11020D5E704F40A
:100DA000004008B10F20D0E74046CEE7342C014088
:100DB00070B500264FF4803505E00F48046804F054
:100DC000450000B103E0281EA5F10105F5D100BFE3
:100DD00015B104F0040028B10326042001F0B0F995
:100DE000304670BD04F0400018B10026402001F0EC
:100DF000A7F93046F5E70000342C014010B50E4944
:100E00000E4800F06BF9A8B10B490C4800F03CF813
:100E10000A4800F037F90A4908700846007808B90E
:100E2000012000E000200749087007480088401CA6
:100E30000549088010BD00002080001010640240A9
:100E400044800020458000203000002010B501F0D3
:100E50005BFE10BD0246094B9A4201D2084801E0F0
:100E60000648103801F000531BB1064B0B40C3601D
:100E700002E0044B0B4083607047000010640240A6
:100E8000006002407D0F7D0F0246094B9A4201D25D
:100E9000084801E00648103801F000531BB1064B2A
:100EA0000B40C36002E0044B0B40836070470000BE
:100EB00010640240006002407D0F7D0F21B1026886
:100EC00042F00102026003E0026822F001020260C7
:100ED00070470000016821F00101016000210160FC
:100EE00041608160C1600161212141614A498842BC
:100EF00004D13D21484A103A91608CE046491831AE
:100F0000884205D14FF47461434A103A916082E0FF
:100F100041493031884205D14FF474113E4A103AAC
:100F2000916078E03C494831884205D14FF07461C6
:100F3000394A103A91606EE037496031884204D1F5
:100F40003649354A103AD16065E0334978318842F4
:100F500004D13349304A103AD1605CE02E499031D7
:100F6000884204D12F492C4A103AD16053E02A49D3
:100F7000A831884205D14FF03D51274A103AD1603F
:100F800049E02949884204D13D21274A083A1160A5
:100F900041E025491831884205D14FF47461224A55
:100FA000083A116037E020493031884205D14FF4CA
:100FB00074111D4A083A11602DE01B4948318842DE
:100FC00005D14FF07461184A083A116023E01649C0
:100FD0006031884204D11149134A121F11601AE08E
:100FE00011497831884204D10D490F4A121F11600E
:100FF00011E00D499031884204D10A490A4A121F72
:10100000116008E00849A831884204D14FF03D51F1
:10101000054A121F11607047106002403D00002019
:10102000400F002000003D201064024021B1026802
:1010300042F48022026003E0026822F4802202600F
:10104000704722B1036843F40023036003E00368A0
:1010500023F4002303600161704721B1026842F06C
:101060002002026003E0026822F020020260704762
:10107000014600200A6802F001020AB1012000E0E6
:1010800000207047014600200A6802F400220AB1DD
:10109000012000E00020704730B503460A460020DA
:1010A00000240B4DAB4201D20A4901E00849103936
:1010B00002F000550DB14C6800E00C68064D2C4064
:1010C00004EA02050DB1012000E0002030BD00005F
:1010D00010640240006002407D0F7D0F70B5024633
:1010E000002000240025124EB24201D2114B01E033
:1010F0000F4B103B104E0E4036B11E2606EAD1248F
:10110000166806EA040502E0566906F0800501F05B
:1011100000560EB15C6800E01C68084E344004EADA
:10112000010616B10DB1012000E0002070BD0000E5
:1011300010640240006002403C0F3C0F7D0F7D0FA9
:1011400010B501F080034BB122B1436943F0800335
:10115000436103E0436923F08003436180290BD09E
:101160002AB1036801F01E042343036004E003680E
:1011700001F01E04A343036010BD000010B500225F
:101180000268134B1A40CC680B6823434C69234315
:101190008C692343CC6923430C6A23434C6A234361
:1011A0008C6A23434C6B23438C6B23431A430260AA
:1011B000426922F00702D1E90B3423431A4342610A
:1011C0000B6943604B6883608B68C36010BD00008F
:1011D0003F801CF07047000010B50446214610A067
:1011E00003F036FD240300F035F900F0CDF80020BF
:1011F0000D490860202002F059FDC4F3074002F0B9
:1012000055FDC4F3072002F051FDE0B202F04EFD9F
:1012100001200649C1F8B80200F0B6F810BD000080
:1012200066653A25780D0A00B88240420080404247
:101230001CB50121022000F069FE0121402000F0D0
:1012400065FE4FF48040009001208DF804000020DE
:101250008DF8060003208DF8050001208DF80700A9
:1012600069460F4800F00EFB8020009069460D484B
:1012700000F008FB80210B4800F06FFB01200A49B9
:10128000086002F0B1FC002002F02CFD00F042F8F2
:10129000064908800846018805A003F0D9FC1CBD5A
:1012A0000004024000180240B882404274800020CE
:1012B000454E32355158585F545950453D25580DCB
:1012C0000A0000002DE9F04106460C4617460020B2
:1012D0000F490860032002F0E9FCC4F3074002F064
:1012E000E5FCC4F3072002F0E1FCE0B202F0DEFC12
:1012F000002505E0FF2002F0D9FC7055681C85B27E
:10130000BD42F7DB012002490860BDE8F081000022
:10131000B882404210B5002400200E490860902099
:1013200002F0C4FC002002F0C1FC002002F0BEFC70
:10133000002002F0BBFCFF2002F0B8FC44EA0024CD
:10134000FF2002F0B3FC044301200349C1F8B802B6
:10135000204610BDB88240420080404210B50024B3
:10136000002007490860052002F0A0FCFF2002F0E1
:101370009DFC044601200349C1F8B802204610BD77
:10138000B88240420080404210B500BFFFF7E6FF40
:1013900000F001000028F9D110BD00002DE9F05F38
:1013A00081460F461646DFF8A8B04FEA1738C7F354
:1013B0000B0ACAF58054A64200DC344644E04FEAEA
:1013C00008314FF480525846FFF77CFF002508E0B3
:1013D0000AEB05001BF80000FF2800D003E0681CA2
:1013E00085B2A542F4DB00BFA54216DA4046FFF7FE
:1013F000F3FE002507E019F8050005EB0A010BF8DC
:101400000100681C85B2A542F5DB4FEA08314FF4B4
:101410008052584600F02EF804E0224639464846ED
:1014200000F028F8A64200D10FE008F101084FF0C3
:10143000000AA1442744301B86B2B6F5805F02DD66
:101440004FF4805400E03446B9E700BFBDE8F09F98
:101450001885002010B5002004490860062002F01D
:1014600025FC01200249C1F8B80210BDB8824042F3
:10147000008040422DE9F04107460E461446F0B286
:10148000C0F58075AC4200DC254612E02A463146A4
:10149000384600F013F8AC4200D10BE02F442E4444
:1014A000601B84B2B4F5807F02DD4FF4807500E0EC
:1014B0002546EBE700BFBDE8F08100002DE9F041D3
:1014C00006460C461746FFF7C5FF00200F49086087
:1014D000022002F0EBFBC4F3074002F0E7FBC4F389
:1014E000072002F0E3FBE0B202F0E0FB002504E09D
:1014F000705D02F0DBFB681C85B2BD42F8DB0120A9
:1015000002490860FFF740FFBDE8F081B882404221
:1015100010B500240EE04FF40D71002007F0C6FE58
:10152000184941F82400084650F8240000B903E0A7
:10153000601CC4B2042CEEDB00BF4FF41471002019
:1015400007F0B4FE104908604FF41471002007F052
:10155000ADFE0E4908604FF40071002007F0A6FEB2
:101560000B490860042C0AD10748006838B10748C5
:10157000006820B10846006808B1002010BD0120B5
:10158000FCE7000018950020788000207C80002077
:101590008880002051B18200A2F1C042126842F05E
:1015A00001038200A2F1C042136009E08200A2F1AF
:1015B000C0421268034B1A408300A3F1C0431A6073
:1015C00070470000FEFF0F0030B50021002200230D
:1015D0000468A400A4F1C0442168444C2140D0E92F
:1015E00001452C43C5682C4305692C4345692C43B0
:1015F00085692C43C5692C43056A2C43456A2C43F5
:10160000856A2C43C56A2C43056B2C43214304682F
:10161000A400A4F1C04421608468082C0BD10468A4
:10162000A400A4F1C044246844F040050468A40068
:10163000A4F1C04425600468641CA400A4F1C04463
:10164000226802F04042446B2468456B6D6844EAAE
:101650000514456BAD6844EA0524456BAD8944EA41
:101660000544456B2D8A44EA0554456B2D7D44EABB
:101670000564456BAD692C4322430468641CA400D7
:10168000A4F1C0442260C46AB4F5804F24D1046838
:10169000A400A4F1C044D4F8043103F04043846BA7
:1016A0002468856B6D6844EA0514856BAD6844EA6F
:1016B0000524856B2D8A44EA0554856B2D7D44EA0B
:1016C0000564856BAD692C4323430468A400A4F131
:1016D000C044C4F8043107E06FF070450468A4000A
:1016E000A4F1C044C4F8045130BD00008000F7FFED
:1016F0002DE9FC4107460D460026002400200090FD
:10170000019008205B4908601020486040208860F4
:101710000020C8604FF480600861084600F086FD34
:101720001020FFF783FA044614B12046BDE8FC817F
:101730005148008800044F49086037204860402025
:1017400088600020C8604FF480600861084600F09F
:101750006DFD3720FFF76AFA04460CB12046E5E735
:101760004FF0FF304549086008204860302088600D
:101770000220C8600020086101204861084600F08E
:10178000EFFC00203B49086033204860402088601F
:101790000020C8604FF480600861084600F046FDF4
:1017A0003320FFF743FA04460CB12046BEE70CE0B5
:1017B0004FF4001000F0EEFC38B1314800684DF8ED
:1017C0002600761C022E00D307E02D484C38006816
:1017D00040F22A6108400028EAD000BF082000F04B
:1017E000D9FC20B1082000F0ABFC04209EE70220C9
:1017F00000F0D0FC20B1022000F0A2FC022095E70E
:10180000202000F0C7FC20B1202000F099FC062029
:101810008CE74FF4007000F0BDFC28B14FF400706D
:1018200000F08EFC072081E740F2FF5000F088FCBA
:1018300000980006009901F47F4140EA01200099D8
:1018400001F47F0140EA1120009940EA11606860CC
:1018500001980006019901F47F4140EA01200199B5
:1018600001F47F0140EA1120019940EA11602860EB
:1018700020465BE770820020588000208482002090
:10188000802C0140F0B50A4600210023002400BF4F
:101890003DE0012505FA01F3156805EA03049C42C1
:1018A00034D105684F000326BE40B5430560157965
:1018B0004E00B5400668354305601579012D02D00C
:1018C0001579022D16D185684F000326BE40B54319
:1018D000856055794E00B54086683543856045681A
:1018E00001268E40B5434560456896798E40B6B274
:1018F00035434560C5684F000326BE40B543C5600B
:10190000D5794E00B540C6683543C560491C1029DD
:10191000BFD3F0BDF0B5002300244D07ED0E02FA51
:1019200005F3CE1000F1200555F826504E07F70EAE
:101930000F26BE40B543CF1000F1200646F82750D1
:10194000CE1000F1200555F8265045EA0304CE10CC
:1019500000F1200545F82640F0BD0183704700BF27
:10196000FEE700001CB504460020019000902248CC
:1019700000880004214908600D20486040208860EC
:101980000020C8604FF480600861084600F04EFCFB
:101990001B480068009002E0194800680090009819
:1019A00000F045000028F7D0012000F0F3FB20B143
:1019B000012000F0C5FB01201CBD042000F0EAFB63
:1019C00020B1042000F0BCFB0320F5E70C482438CC
:1019D00000680D2801D01020EEE740F2FF5000F023
:1019E000AFFB07482038006801900198C0F34320FE
:1019F00020700020E0E70000588000207082002066
:101A0000342C014070B506460F484088401E83B212
:101A10000D480088401E82B20021084600F07DF883
:101A200000240CE0002504E0304600F0F1F9681CC9
:101A300085B205484088A842F6DC601C84B20248A2
:101A40000088A042EEDC70BD6C80002010B504461A
:101A50000D4884715CB90021362000F0C9F94FF4BB
:101A60004870094948804FF4F07008800AE0682106
:101A7000362000F0BDF94FF4F070034948804FF470
:101A80004870088010BD00006C80002070B50446CE
:101A90000D4616462B4622462946204600F03DF8C4
:101AA000304600F0B5F970BD2DE9F04304460D460F
:101AB00016461F46DDF81C80B44201DCBD4201DD44
:101AC000BDE8F0833B4632462946204600F025F823
:101AD000301B401C84B2781B401C85B20BE0A94629
:101AE00002E0404600F094F9B9F10000A9F10101CB
:101AF0001FFA81F9F5D1201EA4F101018CB2EED1BB
:101B000000BFDDE710B50246012000E050430B1E88
:101B1000A1F10104E1B2F9D110BD70B504460D4642
:101B20002A2000F05FF92646E11704EB1161C1F3AA
:101B30000F2000F067F9E11704EB11610912A4EB23
:101B4000012188B200F05EF91646D11702EB11614F
:101B5000C1F30F2000F056F91646D11702EB1161C0
:101B60000912A2EB012188B200F04CF92B2000F001
:101B700039F92E46E91705EB1161C1F30F2000F08A
:101B800041F9E91705EB11610912A5EB012188B2B2
:101B900000F038F91E46D91703EB1161C1F30F208D
:101BA00000F030F91E46D91703EB11610912A3EBBF
:101BB000012188B200F026F92C2000F013F970BD45
:101BC0002DE9F84F80460E4617461C46B346204680
:101BD000E31704EB5373DB1021464FEAE47C04EB7C
:101BE0005C7C4FEAEC0CA4EBCC0CBCF1000F02D0F7
:101BF0004FF0010C01E04FF0000C6344224604EB6F
:101C0000D27C4FEA6C0C03FB0CF3DBB20093A7F120
:101C10002000C7B2002556E00C2C07D107EB470087
:101C20002B4901EB800010F8059013E0102C05D132
:101C3000284800EB071010F805900BE0182C07D18E
:101C400007EBC700244901EB800010F8059001E084
:101C5000BDE8F88F4FF0000A2FE009F0800030B1A6
:101C60001E48028831464046FFF710FF07E00A98F9
:101C700028B91B48028831464046FFF707FF4FEA64
:101C800049604FEA1069701C86B216484088B0421D
:101C900000DCDDE7A6EB0B00A0420AD15E4608F1AE
:101CA00001001FFA80F80F480088404500DCCFE7AC
:101CB00006E00AF1010000F0FF0ABAF1080FCCDBE0
:101CC00000BF681CC5B200988542A5DB00BFBFE716
:101CD000C09B000834A0000824A6000868800020EB
:101CE0006A8000206C8000202DE9FF4F81B00746FC
:101CF00091461E460E9D4FF0000A002439E0301B2D
:101D0000401EC1B20A20FFF7FDFEB9FBF0F00A2128
:101D1000B0FBF1F201FB1208BAF1000F16D1701EF0
:101D2000A04213DDB8F1000F0ED10020AB4605EB49
:101D3000DB71491001FB0471009088B22B46202210
:101D40000299FFF73DFF12E04FF0010A0020AB4679
:101D500005EBDB71491001FB0471009088B208F1BA
:101D60003001CAB22B460299FFF72AFF00BF601C60
:101D7000C4B2B442C3DB05B0BDE8F08F2DE9F8472B
:101D800004460D4690469946DDE9096704F0FF0ACE
:101D900008EB04001FFA80F809EB05001FFA80F930
:101DA00016E0444502DB5446A81985B24D4500DBD8
:101DB00014E0002000903A78334629462046FFF789
:101DC000FFFE304606EBD07104EB61018CB27F1C44
:101DD00038787E2802DC38782028E2DA00BFBDE8B7
:101DE000F887000001490880704700007E00006C01
:101DF00000B503460A461846FFF7F4FF104600F008
:101E000001F800BD01490880704700008000006CA7
:101E100001490880704700008000006C1CB501215A
:101E2000202000F073F801208DF80400400200909B
:101E300003208DF8050000208DF8060001208DF8A4
:101E4000070069460A48FFF71DFD4FF40071084876
:101E5000FFF783FD4FF48060009069460448FFF768
:101E600011FD4FF480610248FFF777FD1CBD0000B3
:101E70000014024000BFFEE77047000070B500216B
:101E800000230F22C4781CB3174C246804F4E064C8
:101E9000C4F5E064C4F30721C1F10404E3B20A41CC
:101EA00044789C40E1B28478144021430C07210E11
:101EB0000E4C05786155047804F01F050124AC40F0
:101EC00005786D11AD0005F1E025C5F8004109E088
:101ED000047804F01F050124AC40054D0678761106
:101EE00045F8264070BD00000CED00E000E400E085
:101EF00080E100E002490143024A1160704700009E
:101F00000000FA050CED00E07047000029B1064A18
:101F100012680243044B1A6004E0034A12688243C9
:101F2000014B1A60704700003038024029B1064A60
:101F300012680243044B1A6004E0034A12688243A9
:101F4000014B1A60704700003838024029B1064A38
:101F500012680243044B1A6004E0034A1268824389
:101F6000014B1A60704700004038024029B1064A10
:101F700012680243044B1A6004E0034A1268824369
:101F8000014B1A60704700004438024029B1064AEC
:101F900012680243044B1A6004E0034A1268824349
:101FA000014B1A607047000024380240F0B5002150
:101FB00000220024022500260223324F3F6807F04A
:101FC0000C0121B1042905D0082937D105E02E4F95
:101FD000076036E02D4F076033E02A4F3F1F3F6810
:101FE000C7F38056274F3F1F3F6807F03F036EB18E
:101FF000264FB7FBF3F7DFF88CC0ACF1040CDCF82C
:1020000000C0CCF3881C07FB0CF40CE01E4FB7FBA0
:10201000F3F7DFF870C0ACF1040CDCF800C0CCF3CF
:10202000881C07FB0CF4174F3F1F3F68C7F301479D
:102030007F1C7D00B4FBF5F7076002E0124F0760DC
:1020400000BF00BF0F4F3F6807F0F0010909104FB4
:102050007A5C0768D74047600A4F3F6807F4E05151
:10206000890A0B4F7A5C4768D7408760054F3F6805
:1020700007F46041490B064F7A5C4768D740C76058
:10208000F0BD0000083802400024F40000127A007D
:10209000000000207CB5054600240020009001903F
:1020A00000260DB1022600E000262248006800F05C
:1020B000007008B10E207CBD1F49098888B26946AE
:1020C000FFF716FB04460CB12046F4E7019800F434
:1020D000802060B318480088000418490860372041
:1020E0004860402088600020C8604FF4806008612C
:1020F000084600F09BF83720FEF798FD04460CB127
:102100002046D8E70D48066006200C49486040206C
:1021100088600020C8604FF480600861084600F0C5
:1021200085F80620FEF782FD04462046C3E72520F9
:10213000C1E70000142C014058800020708200206C
:102140000149086070470000382C01400146034AED
:10215000106820F0FF00084310607047042C014015
:1021600000210B4B02681A601B1D42681A601A1D81
:10217000116821F0F701D0E902231A4303691A43D9
:1021800043691A431143024A083211607047000044
:10219000242C014001460020034A12680A400AB17B
:1021A000012000E000207047342C01400248006804
:1021B00000F0030070470000002C014010B500F053
:1021C000BBFC10BD00210A4A116847F6FF6291432B
:1021D000027D83681A4343681A43C3681A4303683D
:1021E0001A4303691A431143014A11607047000002
:1021F000042C014000200B490860091D0860091DDE
:102200000860091D0860074924310860091D08603D
:10221000091D086004480349383108600020091D81
:1022200008607047002C0140FF07C0000021094BE7
:1022300002681A601A1D11686FF30A01D0E90123C0
:102240001A43C3681A4303691A431143014A121D12
:1022500011607047082C0140014908607047000078
:10226000002C014070B590B004460D4616464FF064
:10227000FA512148FEF7EEFD00211F48FEF71EFE31
:1022800000BF1D48FEF7F4FE0028FAD11A48FEF7F9
:1022900021FE4FF0006001901848029003940496CC
:1022A0000595002006904FF480600790800008900C
:1022B0008000099000200A904FF440300B900420D9
:1022C0000C9003200D904FF400000E9080100F90A2
:1022D00001A90948FEF752FF012210210648FEF726
:1022E0002FFF20210448FEF7B8FE01210248FEF727
:1022F000E5FD10B070BD000058640240802C014024
:1023000070B50446002516480078032802D1272519
:10231000284670BD1248007838B11148007801286D
:1023200003D00F480078022817D1B4F5805F02D19E
:1023300027252846EDE7E0B2FFF7ACFE054665B974
:102340000848006820F4C050064908600846006844
:10235000204308600846006808602846D9E7000066
:1023600054800020042C0140F0B5014600200022DA
:10237000BE4B1B7881F85630BD4B1B88A1F85430FA
:10238000BC4B1B681A0E93090B70C2F383034B708E
:1023900002F003038B70B74B1B68C3F30742CA708C
:1023A000B44B1B88C3F307220A71B24B1A784A71E7
:1023B0005B681A0E1301CB80AE4B5B68C3F3074218
:1023C000CB8843EA1213CB8002F00F030B72A94BA8
:1023D0009B88C3F30722D3094B72C2F380138B721D
:1023E000C2F34013CB72C2F300130B7300234B7381
:1023F0009E4B1B783BB19D4B1B78012B03D09B4B15
:102400001B78032B4FD193071B0D0B61994B1A7946
:102410000B6943EA82030B61964B9B681A0E0B69AA
:1024200043EA92130B61C2F3C2030B7502F0070378
:102430004B75904B9B68C3F3074253098B75C2F3EE
:102440008203CB7593075B0F0B768A4B1B89C3F313
:1024500007220B7E43EAD2130B760B695B1C002428
:10246000C1E912340B7E9B1C012404FA03F3DC1730
:10247000D1E91256A5FB037C06FB03C305FB04331D
:10248000C1E912730C7A0123A3400B650024D1E942
:1024900012650B6DA6FB037C05FB03C306FB04332F
:1024A000C1E912732EE0714B1B78022B2AD1714BBC
:1024B0001A7993069B0A0B616E4B9B681A0E0B6987
:1024C00043EA02230B616B4B9B68C3F307420B6922
:1024D00013430B61674B1B89C3F307220B695B1C1A
:1024E0004FF40074A3FB04464FF480630025A4FB63
:1024F000037C06FB03C304FB0533C1E912734FF4ED
:1025000000730B65C2F3801301F8193F93065B0E4D
:102510004B70584B1A7A4B7843EAD2134B7002F047
:102520007F038B70534BDB681A0ED309CB70C2F359
:1025300041130B71C2F382034B7193071B0F8B7115
:102540004C4BDB68C3F307428B7943EA92138B71E0
:10255000C2F34013CB7100230B7202F001034B72E4
:10256000444B9B89C3F30722D3098B72C2F38013B8
:10257000CB72C2F340130B73C2F300134B73C2F35D
:1025800081038B7302F00303CB733A4B1A7B53081E
:102590000B7401234B74384B1B681A0ECA7419391B
:1025A000354B1B68C3F307421402CC85324B1B88A2
:1025B000C3F30722CB8D1343CB852F4B1A78140618
:1025C0000C635B681A0E0B6B43EA02440C632A4BE4
:1025D0005B68C3F307420B6B43EA02240C63264B90
:1025E0009B88C3F307220B6B13430B63224B1A79AF
:1025F00034235A54204B9B681A0E35235A541E4BD1
:102600009B68C3F3074214068C631B4B1B89C3F3FF
:1026100007228B6B43EA02448C63174B1A7A8B6B4D
:1026200043EA02248C63144BDB681A0E8B6B134352
:102630008B63114BDB68C3F307423C235B5C43EACB
:1026400012143C235C5413071C0DCC870A4B9B8946
:10265000C3F30722CB8F1343CB87074B1A7B540856
:1026600040235C54012441235C54F0BD548000207D
:10267000588000209C820020AC8200203EB50024BF
:10268000002501214948FFF741FC0121C802FFF75D
:102690006DFC0121C802FFF779FC4FF4F85001905E
:1026A00002208DF808008DF8090000208DF80A003E
:1026B00001208DF80B0001A93D48FFF7E3F8042045
:1026C000019001A93B48FFF7DDF80C2208213848AA
:1026D000FFF720F90C2209213548FFF71BF90C22DE
:1026E0000A213348FFF716F90C220B213048FFF777
:1026F00011F90C2211462E48FFF70CF90C22022189
:102700002C48FFF707F900214FF40060FFF73EFC6B
:10271000FFF770FD31208DF8000000208DF80100DA
:102720008DF8020001208DF803006846FFF7A6FB34
:102730003B208DF8000000208DF801006846FFF76F
:102740009DFB00F0EFF8044614B900F039F8044698
:102750001CB91948FFF708FE044634B91649B1F808
:102760005410080400F0DAFD044624B94FF4006068
:10277000FFF7C6FD04461CB110480078032812D1AB
:102780000D4890F8560020B10B4890F856000128EB
:1027900001D1022500E000252846FFF7D7FC0120E3
:1027A00000F0D4FD044620463EBD00000C00400071
:1027B00000080240000C0240C0820020548000202B
:1027C00038B5002401200090FFF7F0FC10B9252453
:1027D000204638BD4D480078042824D000204C49BC
:1027E000086002204860C02088600020C8604FF464
:1027F000806008610846FFF719FDFEF749FA0446B4
:102800000CB12046E5E74348006843490860414869
:10281000001D006848603F480830006888603D48F7
:102820000C300068C8603948007858B137480078E3
:10283000012807D035480078062803D033480078AF
:10284000022816D100203249086003204860402049
:1028500088600020C8604FF4806008610846FFF778
:10286000E5FC69460320FEF759FA04460CB1204600
:10287000AFE726480078032816D1BDF80000000411
:102880002349086003204860402088600020C86019
:102890004FF4806008610846FFF7C8FCFEF7F8F9BE
:1028A00004460CB1204694E71848007804282AD042
:1028B000BDF8000019490860BDF800000004144983
:1028C000086009204860C02088600020C8604FF47C
:1028D000806008610846FFF7A9FCFEF7D9F90446B5
:1028E0000CB1204675E70B4800680D49086009489F
:1028F000001D006848600748083000688860054887
:102900000C300068C860002063E70000548000209D
:1029100070820020142C0140AC82002058800020DE
:102920009C8200202DE9F047002700240026002586
:10293000A046A14676206E490875002008604860D0
:102940008860C86008610846FFF73CFC0320FFF779
:1029500083FC6848006840F480706649086000BFE6
:1029600012E000206449086048608860C8604FF445
:10297000806008610846FFF759FCFEF73FF90446FE
:1029800004B903E0781CC7B24A2FEADB00BF14B1D8
:102990002046BDE8F0874FF4D570574908600820FD
:1029A0004860402088600020C8604FF48060086163
:1029B0000846FFF73BFCFEF7FBF9044624B901206B
:1029C0004E4908704FF0804900204B49086037207D
:1029D0004860402088600020C8604FF48060086133
:1029E0000846FFF723FC3720FEF720F90446002CA9
:1029F0004CD135E000204049086037204860402035
:102A000088600020C8604FF4806008610846FFF7C6
:102A10000DFC3720FEF70AF904460CB12046B8E752
:102A2000374849EA000034490860292048604020BE
:102A300088600020C8604FF4806008610846FFF796
:102A4000F5FBFEF74FF904460CB12046A1E72948F3
:102A500010300668012080EAD67080F001086D1CF5
:102A6000B8F1000F03D14FF6FF708542C2D34FF685
:102A7000FF70854202D31B2420468AE706F080407F
:102A8000061E33D002201D4908702FE01DE01D48AE
:102A90001949086001204860402088600020C86013
:102AA0004FF4806008610846FFF7C0FBFEF71AF993
:102AB00004460CB120466CE70E4810300668012031
:102AC00080EAD67080F001086D1CB8F1000F03D1C8
:102AD0004FF6FF708542DAD34FF6FF70854202D37E
:102AE0001B24204655E7032004490870204650E780
:102AF00058820020042C0140708200205480002065
:102B0000000010800080FF8010B50848006800F0C9
:102B1000C05050B1012006490870064908704FF0B6
:102B2000C25102485830FEF795F910BD00640240CA
:102B3000608000205F80002010B54FF48070FFF7A8
:102B400029FB78B34C480078012814D100204B4968
:102B500008600C204860402088600020C8604FF466
:102B6000806008610846FFF761FB0C20FEF75EF805
:102B70004349087002E0002041490870414800685C
:102B800040F480703F490860081D00684CF23A31FB
:102B900088433C49091D086001203B4908703848BA
:102BA000007810BDFFE70220FFF7F4FA78B10220A9
:102BB000FFF7C6FA3348001D00684CF23A318843EB
:102BC0003049091D086002202D490870E9E70820F6
:102BD000FFF7E0FA78B10820FFF7B2FA2948001DA4
:102BE00000684CF23A3188432649091D08600420E8
:102BF00023490870D5E72020FFF7CCFA78B12020D0
:102C0000FFF79EFA1F48001D00684CF23A318843D6
:102C10001C49091D0860062019490870C1E71020E9
:102C2000FFF7B8FA78B11020FFF78AFA1548001DAF
:102C300000684CF23A3188431249091D08600520AA
:102C40000F490870ADE74FF40070FFF7A3FA80B1A9
:102C50004FF40070FFF774FA0A48001D00684CF248
:102C60003A3188430749091D086007200449087064
:102C700097E7002095E700005D800020708200202B
:102C80005E800020382C01405F8000202DE9F84F45
:102C90008146174698460A9C4FF0000AD3464D4697
:102CA0004FF0FF36B9F1000F02D12620BDE8F88FB2
:102CB00000209049086090480078022805D104025D
:102CC000780A40EAC8574FEA682800208B49886094
:102CD0004860401E0860012048610020C86008610B
:102CE0000846FFF73DFA83481838006800F0007086
:102CF00008B10E20DAE7002C21DDB4F5006F1EDCF0
:102D0000601E2040D8B9204602F0D4FF00907C48D5
:102D1000046010207A494860402088600020C86024
:102D20004FF4806008610846FFF780FA1020FDF735
:102D30007DFF8246BAF1000F03D05046B6E7262049
:102D4000B4E7009800016D498860084644604FF080
:102D5000FF300860012048610220C860002008613F
:102D60000846FFF7FDF9664807601120644948608E
:102D7000402088600020C8604FF4806008610846E9
:102D8000FFF754FA1120FDF751FF8246BAF1000F08
:102D900001D050468AE75B48007800285AD172B6C5
:102DA00018E04FF40040FFF7F5F978B14FF0000B51
:102DB00006E050485430006845F82B000BF1010B39
:102DC000BBF1080FF5D320354F4E03E00EB90420B8
:102DD0006CE7761E47480830006840F22A610840D8
:102DE0000028DED00820FFF7D5F920B10820FFF732
:102DF000A7F904205AE70220FFF7CCF920B10220FE
:102E0000FFF79EF9022051E72020FFF7C3F920B118
:102E10002020FFF795F9062048E74FF40070FFF7F0
:102E2000B9F928B14FF40070FFF78AF907203DE7A0
:102E300004E030485430006828602D1D4FF4001025
:102E4000FFF7A8F90028F4D162B640F2FF50FFF76F
:102E500077F94CE02B480078012848D100202B4915
:102E600008702B4908702B49087022481030006800
:102E700040F22A3108431F49103108601D4800689C
:102E800040F008001B490860002221464846FFF731
:102E9000E9F918E0761E4FF090511F48FEF7FCF854
:102EA00030B14FF090511C48FDF7D4FF0420FDE6EF
:102EB00010480830006800F02A0020B12A20FFF7EF
:102EC0003FF90220F2E61548007820B90F48007853
:102ED00008B9002EDED10020104908700EB9042078
:102EE000E4E60A48007810B1084890F800A050467F
:102EF000DCE600002C2C014054800020848200205D
:102F0000708200205C800020FFFF7F005E80002038
:102F10005D8000205F8000205864024060800020B7
:102F20002DE9FE4F83460C46914600200290002674
:102F300025462C46700240EAD5566D020BF0030080
:102F4000F0B14FF0000A18E04FF4007000904FEA23
:102F50004A20471946EBE0733A461648FFF796FEBB
:102F600002904FF4007213495846FDF78BF90BF5A8
:102F7000007B0AF1010000F0FF0ACA45E4DB16E01D
:102F8000B9F1010F09D14FF400702A463346009081
:102F90005846FFF77BFE029009E04FF400702A4686
:102FA0003346CDE90009584600F006F80290029831
:102FB000BDE8FE8F188300202DE9FF5F1746984675
:102FC000DDE90E464FF00009CA464FF0FF35C7490C
:102FD000009808600020C6490860C64800780228AA
:102FE00005D10402780A40EAC8574FEA6828002051
:102FF000C14988604860401E086001204861002087
:10300000C86008610846FFF7ABF8B948183800688F
:1030100000F0007018B10E2004B0BDE8F09F002C45
:1030200021DDB4F5006F1EDC601E2040D8B92046BB
:1030300002F040FE8346B14804601020AF4948606A
:10304000402088600020C8604FF480600861084616
:10305000FFF7ECF81020FDF7E9FD8146B9F1000F0C
:1030600003D04846D8E72620D6E7012E70D906FBC4
:1030700004F0B0F1007F01D32620CDE74FEA0B101A
:103080009D49886006FB04F048604FF0FF300860FF
:10309000012048610220C860002008610846FFF74F
:1030A0005FF8964807601220944948604020886085
:1030B0000020C8604FF4806008610846FFF7B6F84A
:1030C0001220FDF7B3FD8146B9F1000F01D048464B
:1030D000A2E78B48007800287ED172B61EE04FF43C
:1030E0000040FFF757F8A8B14FF0000A08E0804809
:1030F000543000687D49096841F82A000AF1010A44
:10310000BAF1080FF3D37948006820307749086096
:103110007C4D03E00DB904207EE76D1E7448083035
:10312000006840F22A3108400028D8D00820FFF774
:1031300031F820B10820FFF703F804206CE70220E3
:10314000FFF728F828B10220FEF7FAFF022063E714
:10315000C9E02020FFF71EF820B12020FEF7F0FF85
:10316000062059E74FF40070FFF714F828B14FF428
:103170000070FEF7E5FF07204EE70AE05C48543098
:1031800000685A490968086058480068001D574996
:1031900008604FF40010FEF7FDFF0028EED14FF459
:1031A0008070FEF7F7FF20B35248007838B15148DD
:1031B0000078012803D04F480078022819D1002058
:1031C0004E4908600C204860402088600020C8609C
:1031D0004FF48060086100E011E00846FFF726F830
:1031E0000C20FDF723FD8146B9F1000F01D04846C0
:1031F00012E762B640F2FF50FEF7A2FF73E04048CC
:10320000007801286FD100203F49087001203F4914
:10321000087000203E4908703E490870344810305C
:10322000006840F22A3108433149103108603048C3
:10323000006840F008002E49086006FB04F10022F7
:103240000098FFF70FF84FF0FF3518E06D1E4FF0B4
:1032500090513148FDF720FF30B14FF090512E488A
:10326000FDF7F8FD0420D7E621480830006800F09B
:103270002A0020B12A20FEF763FF0220CCE6254871
:10328000007820B92048007808B9002DDED10DB9AA
:103290000420C1E61C48007810B11B480078BBE64A
:1032A0004FF0FF3500E06D1E1948007820B9164830
:1032B000007808B9002DF6D10DB90420ACE612480B
:1032C000007810B110480078A6E610480078012870
:1032D00005D100F047F8814600200C49087040F203
:1032E000FF50FEF72DFF484696E600006480002060
:1032F0002C2C014054800020848200207082002009
:103300005C800020FFFF7F005E8000205D80002049
:103310005F800020608000205864024010B50446A1
:103320000948046007200849486040208860002060
:10333000C8604FF4806008610846FEF777FF0720F9
:10334000FDF774FC10BD00007082002001460020D3
:10335000012900D011B9024B197000E026207047F6
:103360005C80002010B5002400200A4908600C2071
:103370004860402088600020C8604FF48060086189
:103380000846FEF753FF0C20FDF750FC044620468C
:1033900010BD0000708200202DE9FF5F86B0174647
:1033A0009846149D00260020059004900024814634
:1033B0000390824602900195DDF818B0DDF818B050
:1033C000BBF1000F03D126200AB0BDE8F09F00201A
:1033D000D6490860D64988604860401E08600120D0
:1033E00048610020C86008610846FEF7B9FECF4872
:1033F0001838006800F0007008B10E20E4E7CD48EE
:103400000078022805D10502780A40EAC8574FEA39
:103410006828002D1FDDB5F5006F1CDC681E2840F4
:10342000C8B9284602F046FC0590C3480560102044
:10343000C1494860402088600020C8604FF4806027
:1034400008610846FEF7F2FE1020FDF7EFFB064686
:103450001EB13046B8E72620B6E7B8480088000419
:10346000B54908600D204860402088600020C86091
:103470004FF4806008610846FEF7D8FE0D20FDF786
:10348000D5FB06460EB130469EE7A84818380068BE
:1034900003904FF0FF341CE0641EA848008800042D
:1034A000A54908600D204860402088600020C86061
:1034B0004FF4806008610846FEF7B8FE0D20FDF766
:1034C000B5FB06460EB130467EE7984818380068CE
:1034D0000390039800F4807008B9002CDCD10CB97B
:1034E000292071E7944807601820934948604020DC
:1034F00088600020C8604FF4806008610846FEF7CD
:1035000095FE1820FDF792FB06460EB130465BE7AC
:1035100000208B490870059800018549886008469D
:1035200045604FF0FF300860012048610020C8600E
:1035300008610846FEF714FE4FF0FF34814800781A
:1035400000287CD172B645E04FF48040FEF722FEA1
:10355000D8B30198A0EB0900202822D20198A0EB53
:10356000090000F0030020B90198A0EB09008008D1
:1035700004E00198A0EB09008008401C02904FF085
:10358000000A0AE069495431DBF8000008600AF1DA
:10359000010A0BF1040B09F1040902988245F1D3E9
:1035A00010E04FF0000A06E05BF82A005F49543152
:1035B00008600AF1010ABAF1080FF5D30BF1200BEC
:1035C00009F120096FF0404404E0FFE70CB9042042
:1035D000FAE6641E55480830006840F21A61084057
:1035E0000028B1D00820FEF7D5FD20B10820FEF755
:1035F000A7FD0420E8E60220FEF7CCFD20B1022062
:10360000FEF79EFD0220DFE61020FEF7C3FD20B18D
:103610001020FEF795FD0520D6E64FF40070FEF76A
:10362000B9FD30B14FF40070FEF78AFD0720CBE6FC
:1036300005E062B640F2FF50FEF782FD5DE04148D2
:103640000078012859D100203F4908703C49087092
:103650003E49087035481030006840F21A3108437E
:10366000324910310860402229460698FEF7FAFDDB
:103670002E48006840F008002C49086018E0641EDD
:103680004FF090513248FDF707FD30B14FF09051A7
:103690002F48FDF7DFFB042096E624480830006839
:1036A00000F01A0020B11A20FEF74AFD02208BE636
:1036B0002848007808B9002CE1D11CB9FEF7DEFFDC
:1036C000042081E64FF0FF3400E0641E21480078BA
:1036D00038B91E48007820B91B48007808B9002C7A
:1036E000F3D10CB904206FE61748007810B11648E2
:1036F000007869E600201749087040F2FF50FEF795
:103700001FFD04A8FEF72EF9064603E004A8FEF705
:1037100029F906463EB99DF810000728F6D09DF815
:1037200010000628F2D030464EE600002C2C014056
:103730008482002054800020708200205880002065
:103740005D8000205C8000205E8000205F80002083
:1037500058640240608000202DE9FE4F81460C46EF
:10376000924600200290002625462C46700240EA30
:10377000D5566D0209F00300F0B14FF0000B18E0D0
:103780004FF4007249461948FCF77CFD4FF4007075
:1037900000904FEA4B20471946EBE0733A46134836
:1037A000FFF7FAFD029009F500790BF1010000F036
:1037B000FF0BD345E4DB16E0BAF1010F09D14FF45A
:1037C00000702A46334600904846FFF7E5FD029018
:1037D00009E04FF400702A463346CDE9000A484616
:1037E00000F006F802900298BDE8FE8F18830020D2
:1037F0002DE9FF5F82B0DDE910460027002001902F
:10380000002580468146009006FB04FBDDF808A0F9
:10381000DDF808A0BAF1000F03D1262006B0BDE8FC
:10382000F09F0020E5490860E54988604860401E37
:103830000860012048610020C86008610846FEF762
:103840008FFCDE481838006800F0007008B10E20C8
:10385000E4E7DC480078022808D10402DDE904012D
:10386000400A40EAC1504912CDE90401002C1FDD95
:10387000B4F5006F1CDC601E2040C8B9204602F081
:1038800019FA0190D04804601020CF4948604020C8
:1038900088600020C8604FF4806008610846FEF729
:1038A000C5FC1020FDF7C2F907461FB13846B5E741
:1038B0002620B3E7012E6ED906FB04F0B0F1007F9D
:1038C00001D32620AAE7BF48007838B1BD48007868
:1038D000012803D0BB48007802282DD1BB480088BE
:1038E0000004B94908603720486040208860002003
:1038F000C8604FF4806008610846FEF797FC3720E7
:10390000FDF794F907460FB1384687E7AE480660E1
:103910001720AD494860402088600020C8604FF4FF
:10392000806008610846FEF781FC1720FDF77EF9EC
:1039300007460FB1384671E7A3490498086019207B
:103940004860402088600020C8604FF480600861B3
:103950000846FEF76BFC1920FDF768F907460FB122
:1039600038465BE7019800019549886006FB04F042
:1039700048604FF0FF300860012048610020C860B7
:1039800008610846FEF7ECFB91480078002873D1E7
:10399000451E72B642E00FE14FF48040FEF7FAFB9D
:1039A000B8B3ABEB080020281FD2ABEB080000F047
:1039B000030018B9ABEB0800800803E0ABEB08008C
:1039C0008008401C00904FF000090AE07B49543108
:1039D000DAF80000086009F101090AF1040A08F1A7
:1039E000040800988145F1D310E04FF0000906E08B
:1039F0005AF8290071495431086009F10109B9F1F7
:103A0000080FF5D30AF1200A08F120086FF04045AD
:103A100004E0FFE70DB9042000E76D1E6748083099
:103A2000006840F21A3108400028B5D00820FEF79F
:103A3000B1FB20B10820FEF783FB0420EEE6022054
:103A4000FEF7A8FB20B10220FEF77AFB0220E5E694
:103A50001020FEF79FFB20B11020FEF771FB052020
:103A6000DCE64FF40070FEF795FB30B14FF40070C8
:103A7000FEF766FB0720D1E62BE04FF48070FEF7DF
:103A800089FB00B34F48007838B14E4800780128D0
:103A900003D04C480078022815D100204A4908601C
:103AA0000C204860402088600020C8604FF480608F
:103AB00008610846FEF7BAFB0C20FDF7B7F8074689
:103AC0000FB13846AAE662B640F2FF50FEF738FB67
:103AD00072E03F48007801286ED100203D4908700F
:103AE00001203D49087000203C4908703C4908709D
:103AF00032481030006840F21A3108432F49103123
:103B0000086006FB04F140220298FEF7ABFB2B484D
:103B1000006840F00800294908604FF0FF3518E0C0
:103B20006D1E4FF090512F48FDF7B6FA30B14FF0AF
:103B300090512C48FDF78EF904206FE61F4808309D
:103B4000006800F01A0020B11A20FEF7F9FA0220EE
:103B500064E62348007808B9002DE1D11DB9FEF7CD
:103B60008DFD04205AE64FF0FF3500E06D1E1B4826
:103B7000007820B91748007808B9002DF6D10DB9A2
:103B800004204BE61348007810B11248007845E64F
:103B900011480078012805D1FFF7E4FB0746002013
:103BA0000D49087040F2FF50FEF7CAFA0948007844
:103BB00010B10848007831E638462FE62C2C014039
:103BC00084820020548000207082002058800020D1
:103BD0005C8000205E8000205D8000205F800020EF
:103BE000608000205864024000B587B001210220A7
:103BF000FEF78CF901210803FEF7B8F9052203212D
:103C00002848FDF787FE052204212648FDF782FE9D
:103C1000052211462348FDF77DFE3820059002203D
:103C20008DF8180000208DF81A0003208DF8190077
:103C300001208DF81B0005A91A48FDF723FE01217C
:103C40000803FEF7A3F900214FF48050FEF79EF918
:103C50000020ADF800004FF48270ADF802000020A3
:103C6000ADF804000220ADF806000120ADF8080010
:103C70004002ADF80A003820ADF80C000020ADF885
:103C80000E000720ADF810006946074800F058F80C
:103C90000121054800F03AF8FF2000F007F807B0CE
:103CA00000BD0000000402400030014010B5044691
:103CB00000BF02210A4800F035F80028F9D021465B
:103CC000074800F03BF800BF0121054800F02AF842
:103CD0000028F9D0024800F02EF8C0B210BD000054
:103CE0000030014010B50446074800884FF6C77100
:103CF00008400549088008460088204308800121C3
:103D0000014800F003F810BD0030014021B10288E5
:103D100042F04002028004E002884FF6BF731A406E
:103D2000028070470246002013890B400BB101202E
:103D300000E0002070470146888970478181704704
:103D400010B50022028802F441520B884C882343AC
:103D50008C882343CC8823430C8923434C892343F9
:103D60008C892343CC8923431A430280838B4FF2EF
:103D7000FF74234083830B8A038210BD70470000C9
:103D80000CB50020019000903448006840F4803069
:103D90003249086000BF3148006800F400300090EC
:103DA0000198401C0190009818B90198B0F5A04FF7
:103DB000F1D12A48006800F4003010B101200090D1
:103DC00001E0002000900098012846D123484030AF
:103DD000006840F080502149403108602048006868
:103DE00040F440401E4908601C48083000681B49E8
:103DF000083108600846006840F400400860084642
:103E0000006840F4A05008601648091F0860081FA9
:103E1000006840F08070091F086000BF0F4800680C
:103E200000F000700028F9D040F205700E490860DB
:103E30000A480830006820F003000849083108608B
:103E40000846006840F00200086000BF03480830E0
:103E5000006800F00C000828F8D10CBD00380240C2
:103E60000070004008544007003C0240042808D17C
:103E70004FF0E021096941F004014FF0E0221161A7
:103E800007E04FF0E021096921F004014FF0E02242
:103E9000116170477047000010B504466FF00400D0
:103EA000FFF7E4FFE11704EB5171C1F3C701074AC3
:103EB00011701046007800EB4001C1EBC0104FF6C6
:103EC000FF7101EAC0000249088010BD24000020F3
:103ED0002600002010B51548006840F47000134912
:103EE00008601348006840F0010011490860002094
:103EF0000F49083108600E4800680E4908400C4917
:103F000008600D48091D0860081F006820F4802023
:103F1000091F0860002006490C310860FFF730FFD8
:103F20004FF0006001498039086010BD88ED00E065
:103F300000380240FFFFF6FE1030002400B59DB0AF
:103F400001210846FDF7F2FF0F200790002008909E
:103F50006020099000200A900B900C900D90152085
:103F6000009001900520029000200390049005909D
:103F7000069006200E9000200F90109010201190B7
:103F80000020129014901390159016904FF48050CA
:103F90001790002018904FF48040199000201A903C
:103FA00007A81B90CDF870D00EA8FDF70DFB0121DE
:103FB0000620FDF7EFFA1DB000BD00001CB5012181
:103FC0007820FDF7A3FF01210220FDF79FFF0C22BF
:103FD0000E216248FDF79EFC0C220F215F48FDF781
:103FE00099FC0C2200215D48FDF794FC0C22012174
:103FF0005A48FDF78FFC0C2207215948FDF78AFC2F
:104000000C2208215648FDF785FC0C220921544852
:10401000FDF780FC0C220A215148FDF77BFC0C22A5
:104020000B214F48FDF776FC0C2211464C48FDF75A
:1040300071FC0C220D214A48FDF76CFC0C220E216C
:104040004748FDF767FC0C220F214548FDF762FC4D
:104050000C2208214148FDF75DFC0C2209213F4854
:10406000FDF758FC0C220A213C48FDF753FC0C22BA
:1040700004213A48FDF74EFC0C2205213748FDF794
:1040800049FC0C2211463748FDF744FC0C2211462E
:104090003548FDF73FFC4CF23370009002208DF85C
:1040A000040000208DF8060003208DF80500012093
:1040B0008DF8070069462948FDF7E4FB4FF680704C
:1040C000009002208DF8040000208DF806000320E7
:1040D0008DF8050001208DF8070069462048FDF79E
:1040E000D1FB4FF48050009002208DF80400002096
:1040F0008DF8060003208DF8050001208DF80700DB
:1041000069461848FDF7BEFB4FF48050009002202E
:104110008DF8040000208DF8060003208DF80500BE
:1041200001208DF8070069460F48FDF7ABFB4FF4FF
:104130000040009001208DF8040000208DF806005A
:1041400002208DF8050001208DF807006946074818
:10415000FDF798FB0120064908601CBD000C0240D9
:104160000010024000140240001802400004024007
:10417000BC82404210B5FFF721FFFFF7DFFE32207F
:1041800002F008F8D320FDF72DFEF0480088F04932
:104190008880EE4800888880EC480088888008463F
:1041A00080884FF6FF7101EA0020E94988800846BF
:1041B00080884FF0D841B1F880100843E4498880E6
:1041C00008468188E3A000F043FDFF20FDF70AFECA
:1041D000FF20FDF717FE9820FDF714FE0620FDF7DF
:1041E00011FEBA20FDF7FEFD6020FDF70BFEBC209E
:1041F000FDF7F8FD0320FDF705FE0E20FDF702FE9A
:104200000320FDF7FFFD6320FDF7FCFD0120FDF716
:10421000F9FD0120FDF7F6FD1B20FDF7F3FD12204F
:10422000FDF7F0FD6F20FDF7EDFD0020FDF7EAFD45
:104230000020FDF7E7FD0020FDF7E4FD0120FDF77C
:10424000E1FD0120FDF7DEFD0320FDF7DBFD02208F
:10425000FDF7D8FDFF20FDF7D5FDF220FDF7D2FDDB
:104260000120FDF7CFFD0020FDF7CCFDC020FDF7BC
:10427000C9FDBD20FDF7B6FD0220FDF7C3FD1320EB
:10428000FDF7C0FD4520FDF7BDFD6720FDF7BAFD38
:104290004520FDF7B7FD6720FDF7B4FD0120FDF7D0
:1042A000B1FD2320FDF7AEFDBE20FDF79BFD0120F3
:1042B000FDF7A8FD2220FDF7A5FD2220FDF7A2FDB8
:1042C000DC20FDF79FFDBA20FDF79CFD6720FDF780
:1042D00099FD2220FDF796FD2220FDF793FD222077
:1042E000FDF790FDC720FDF77DFD6620FDF78AFDF7
:1042F000ED20FDF777FD7F20FDF784FD0F20FDF712
:1043000081FD0020FDF77EFDC020FDF76BFD032041
:10431000FDF778FD0B20FDF775FD0020FDF772FD20
:10432000F520FDF75FFD2020FDF76CFD4320FDF734
:1043300069FD0020FDF766FDEE20FDF753FD0A2024
:10434000FDF760FD1B20FDF75DFD5F20FDF75AFDC9
:104350004020FDF757FD2820FDF754FD3820FDF7DC
:1043600051FD0220FDF74EFD2B20FDF74BFD5020A7
:10437000FDF748FD0020FDF745FD8020FDF742FDDB
:10438000FC20FDF72FFD0820FDF73CFDDF20FDF7A9
:1043900029FD0020FDF736FD0020FDF733FD00204C
:1043A000FDF730FD0020FDF72DFD0020FDF72AFD73
:1043B0002020FDF727FDF320FDF714FD7420FDF705
:1043C00021FDB420FDF70EFD0220FDF71BFD0220AC
:1043D000FDF718FD0220FDF715FDF720FDF702FDA2
:1043E0008220FDF70FFDB120FDF7FCFC0020FDF75A
:1043F00009FD1320FDF706FD1320FDF703FDF22054
:10440000FDF7F0FC4120FDF7FDFC0420FDF7FAFC70
:104410004120FDF7F7FC2820FDF7F4FCC120FDF753
:10442000E1FC1720FDF7EEFC7820FDF7EBFC7B208C
:10443000FDF7E8FC2020FDF7E5FCE020FDF7D2FCCD
:104440000020FDF7DFFC0220FDF7DCFC0C20FDF76F
:10445000D9FC0F20FDF7D6FC1120FDF7D3FC1C2062
:10446000FDF7D0FCC820FDF7CDFC0720FDF7CAFC06
:104470000320FDF7C7FC0820FDF7C4FC0320FDF76F
:10448000C1FC0D20FDF7BEFC0C20FDF7BBFC31206C
:10449000FDF7B8FC2C20FDF7B5FC0020FDF7B2FCC1
:1044A000E120FDF79FFC0020FDF7ACFC0220FDF7AA
:1044B000A9FC0820FDF7A6FC0E20FDF7A3FC1220A6
:1044C000FDF7A0FC1720FDF79DFC7C20FDF79AFC72
:1044D0000A20FDF797FC0320FDF794FC0920FDF767
:1044E00091FC0620FDF78EFC0C20FDF78BFC0C20C8
:1044F000FDF788FC2E20FDF785FC2A20FDF782FCC5
:104500000020FDF77FFC3520FDF76CFC0020FDF757
:1045100079FC3620FDF766FCC020FDF773FC3A20DD
:10452000FDF760FC5520FDF76DFC1120FDF75AFCEE
:10453000782001F02FFE2920FDF754FC0020FDF724
:1045400085FA4FF6FF70FDF75DFA10BD8000006C34
:104550006C800020204C43442049443A25780D0AC1
:104560000000000030B58BB004460D46012120202C
:10457000FDF7CCFC01210802FDF7E8FC09221146F9
:104580002048FDF7C7F902208DF8080000020190CD
:1045900003208DF8090000208DF80A0001208DF815
:1045A0000B0001A91748FDF76DF90994ADF82050EB
:1045B0000020ADF82800ADF8220008A9124800F04C
:1045C0003BF96020ADF80C000220ADF81800204641
:1045D00004EBD071491005910120ADF80E0003A93C
:1045E000094800F0D9F80821074800F013F9012123
:1045F000054800F09BF80121034800F0A6F80BB035
:1046000030BD00000014024000200040FEB5054609
:10461000012401E0601C84B2184800684008B0FB27
:10462000F5F0B0FBF4F0B0F5803FF3D2134800682A
:104630004008B0FBF5F0B0FBF4F0461E012102206B
:10464000FDF784FC0196601E80B2ADF800000020EA
:10465000ADF80800ADF802006946094800F0ECF832
:104660002021074800F0DFF80121054800F05EF83E
:104670000021034800F069F8FEBD00001000002092
:104680000004004010B501210C4800F06AF878B130
:104690000B48007838B900210A4800F056F800218C
:1046A000064800F052F806480078401E0449087099
:1046B0000121024800F046F810BD0000000800404B
:1046C0002C000020002000407FB505460C4601214B
:1046D0000420FDF73BFC0295ADF804400020ADF846
:1046E0000C00ADF8060001A90F4800F0A5F8012262
:1046F00011460D4800F046F801210B4800F022F861
:104700001E208DF8000002208DF8010003208DF896
:10471000020001208DF803006846FDF7AFFB012180
:10472000014800F012F87FBD0008004021B1028866
:1047300042F08002028004E002884FF67F731A4044
:1047400002807047CA430282704721B1028842F05A
:104750000102028004E002884FF6FE731A400280D4
:10476000704730B50246002000230024158A05EA70
:104770000103958905EA010413B10CB1012000E0A1
:10478000002030BD1AB183890B43838102E0838905
:104790008B4383817047000070B500240022002302
:1047A000058C4FF6FE7635400584028C8388048B99
:1047B0004FF68F752C40B51E2C400D882C43751E6E
:1047C0002A408D892A434D882A43104DA84202D0A1
:1047D0000F4DA84213D14FF6F7752A40CD892A43D1
:1047E0004FF6FB752A408D882A434FF6FF652B4014
:1047F0004FF6FF552B400D8A2B434D8A2B43838068
:1048000004838D684563028470BD00000000014090
:10481000000401400A460021018B4FF6F77319404E
:1048200011430183704782884FF68F731A4082804C
:1048300082880A438280704700220288184B98427F
:104840000ED0184B98420BD0B0F1804F08D0164BC9
:10485000984205D0154B984202D0154B984204D18E
:104860004FF68F731A404B881A43124B984207D069
:10487000114B984204D04FF6FF431A400B891A435C
:1048800002804B68C3620B880385054B984202D0B7
:10489000044B984201D18B7A0386012383827047AF
:1048A00000000140000401400004004000080040F6
:1048B000000C0040001000400014004010B540F211
:1048C00025511D4800F0FEF810B31B4800F0B4F964
:1048D000C4B21A48008800F40040C8B917480088DC
:1048E00000F4804060B10A2C03D0002013490880F6
:1048F00020E01248008840F400401049088019E088
:104900000D2C06D10D48008840F480400B490880EA
:1049100010E00A480088C0F30D0009490C5407480C
:104920000088401C0549088008460088C72801DD2A
:104930000020088010BD0000001001402800002069
:10494000BC80002010B588B0044601210846FDF760
:10495000DDFA01211020FDF709FB07220921244877
:10496000FCF7D8FF07220A212148FCF7D3FF4FF4B8
:10497000C060069002208DF81C008DF81D000020FC
:104980008DF81E0001208DF81F0006A91848FCF7BD
:1049900079FF02940020ADF80C00ADF80E00ADF8E0
:1049A0001000ADF814000C20ADF8120002A9114857
:1049B00000F0D8F801210F4800F06BF840210D48B5
:1049C00000F05EF8012240F225510A4800F0A4F8F8
:1049D00025208DF8040003208DF805008DF80600D1
:1049E00001208DF8070001A8FDF748FA08B010BDB6
:1049F000000002400010014010B540F225511D4852
:104A000000F060F810B31B4800F016F9C4B21A4861
:104A1000008800F40040C8B91748008800F48040BE
:104A200060B10A2C03D000201349088020E012480E
:104A3000008840F400401049088019E00D2C06D190
:104A40000D48008840F480400B49088010E00A4877
:104A50000088C0F30D0009490C5407480088401C29
:104A60000549088008460088C72801DD0020088025
:104A700010BD0000004400402A0000208481002076
:104A800001F40072B2F5007F00D100BFCA4302807A
:104A9000704721B1828942F40052828104E0828908
:104AA0004DF6FF731A408281704702460020B1F52F
:104AB000007F00D100BF13880B400BB1012000E044
:104AC0000020704770B50246002400230025002016
:104AD00040F66A16B14200D100BFC1F3421501F0A1
:104AE0001F03012606FA03F3012D02D196893340F4
:104AF00006E0022D02D1168A334001E0968A334047
:104B00000C12012606FA04F41688344013B10CB1D5
:104B1000012000E0002070BDF0B50346002400260F
:104B20000025002040F66A17B94200D100BF1846A0
:104B3000C1F3421401F01F06012707FA06F5012C04
:104B400001D10C3004E0022C01D1103000E014300F
:104B50001AB107682F43076002E00768AF43076098
:104B6000F0BD00002DE9FF4705460E460024A14692
:104B700000BFA046B08900B100BF2C8A24F4405485
:104B8000F08804432C82AC8941F20C608443B088E5
:104B900031890843718908430443AC81AC8A24F409
:104BA0004074B0890443AC826846FDF7FFF92048A1
:104BB000854202D01F48854202D1DDF80C9001E009
:104BC000DDF80890A88900F4004040B109EBC90065
:104BD00000EB091031684900B0FBF1F707E009EB81
:104BE000C90000EB091031688900B0FBF1F76420BF
:104BF000B7FBF0F004012009642101FB1078A889BB
:104C000000F4004040B1322000EBC800B0FBF1F0EE
:104C100000F00700044308E0322000EB0810642194
:104C2000B0FBF1F000F00F0004432C81BDE8FF87DA
:104C3000001001400014014001468888C0F30800BC
:104C40007047C1F308028280704700BFFEE7000092
:104C50000FB4054B10B503A9044A029800F0DAF826
:104C600010BC5DF814FB000051880008B8800020DB
:104C700002E008C8121F08C1002AFAD17047704725
:104C8000002001E001C1121F002AFBD17047000083
:104C90002DE9FF5F82B00021DDE90430020DDDF86F
:104CA00040B0034318D044F61050A2F2FF32424302
:104CB0001514119801281FD0A5EB0B00401C5FEACA
:104CC000000A4FF000064E4FDFF83891B0465046CC
:104CD00015D5CAF1000413E0119801244AA3012854
:104CE00001D16FEA0B010298119AC0E90031C0E9C5
:104CF000024206B0BDE8F09FCBF10000DFE70446BA
:104D00000021404A491842EB0450CDE9001012E05E
:104D1000E00707D032463B4640464946FBF72CFBAE
:104D20008046894632463B4610461946FBF724FB2F
:104D300006460F466410002CEAD1DDE90401DDE9E6
:104D40000023BAF1000F06DAFBF716FB42464B468A
:104D5000FBF712FB05E0FBF7CDFC42464B46FBF7A9
:104D6000C9FC04460E460022284BFBF74BFD03D836
:104D70004FF0FF30014607E00022254B2046314628
:104D8000FBF711FCFBF725FD102409E0002C0ADBE2
:104D90000A220023FBF714FA039B30321A55641ED3
:104DA00050EA0102F2D1641C039AC4F111031444C5
:104DB000119A012A03D0012208430DD10AE00843C9
:104DC00004D000204FF0110B119072E7A3EB0B05FC
:104DD0006D1E0DE05B4504DD4FF0000205F101059D
:104DE00004E003DA4FF00002A5F10105002AECD03F
:104DF00002981199C0E90231C0E9004579E7000045
:104E0000000014400000F03F300000000000F043BC
:104E10000000E03F2DE9FF4F95B09B4689460646CE
:104E200000250FE2252877D100242746F84A0121E2
:104E3000059400E0044316F8013F203B01FA03F01B
:104E40001042F7D130782A2811D06FF02F03307834
:104E5000A0F13002092A16D8059A44F0020402EBA8
:104E6000820203EB42021044761C0590EFE759F8EA
:104E7000042B0592002A03DA504244F400540590B2
:104E800044F00204761C30782E2816D116F8010F53
:104E900044F004042A280DD06FF02F023078A0F1DE
:104EA0003003092B09D807EB870302EB4303C7182C
:104EB000761CF3E759F8047B761C30786C280FD009
:104EC00006DC4C2817D068280DD06A2814D104E0DD
:104ED000742810D07A280FD10DE044F400140AE0B1
:104EE00044F4801401E044F440147278824202D108
:104EF00004F58014761C761C307866280BD013DC01
:104F0000582877D009DC002875D04528F6D04628E7
:104F1000F4D047281AD19DE118E0632835D06428E1
:104F200079D0652812D195E1702873D008DC672804
:104F3000F1D069286FD06E280DD06F2806D1B5E06A
:104F400073282CD0752875D0782874D05A461799B4
:104F500090476D1C75E1C4F30250022809D0032864
:104F60000DD0D9F8001004280DD00D6009F1040906
:104F700067E1D9F80010EA17C1E90052F6E7D9F85D
:104F800000100D80F2E70D70F0E719F8041B8DF8A2
:104F9000001000208DF80100EA46012003E059F8D6
:104FA00004AB4FF0FF3061074FF0000102D40DE079
:104FB00008F101018846B9420FDA8045F8DB1AF89A
:104FC00008100029F4D108E008F101018846814267
:104FD000FADB1AF808100029F6D105985B46A0EB19
:104FE000080721463846179A00F094FA284400EB47
:104FF000080507E04DE029E10DE01AF8010B5A46DB
:1050000017999047B8F10108F7D25B462146384618
:10501000179A13E142E00A220092C4F302524FF0C1
:10502000000A022A08D059F804CB032A4FEAEC718F
:105030000AD00DE029E02AE009F1070121F007027A
:10504000F2E802C1914609E00FFA8CFC4FEAEC71DC
:10505000042A03D14FFA8CFC4FEAEC71002907DADD
:105060000A460021DCF1000C61EB02012D2202E076
:10507000220504D52B228DF80420012203E0E2074B
:1050800001D02022F7E7904659E00A2102E01022E1
:105090000DE010214FF0000A00910BE010224FF0BC
:1050A000000A44F004040827009203E008224FF0AD
:1050B000000A0092C4F30252022A05D059F804CB28
:1050C0000021032A08D009E009F1070121F00702B5
:1050D000F2E802C1914605E01FFA8CFC042A01D1D6
:1050E0000CF0FF0C4FF00008220728D5702806D0DE
:1050F000009B83F0100353EA0A0305D00EE0402220
:105100008DF80420012208E05CEA010206D030227A
:105110008DF804208DF8050002229046009B83F054
:10512000080353EA0A030AD15CEA010201D16207CB
:1051300005D530228DF804204FF001087F1E582835
:1051400004D034A003900EA802900DE036A0F9E739
:1051500053466046009AFBF733F884460398825C16
:105160000298401E029002705CEA0100F0D10298A1
:1051700006A9081A00F1200A600702D524F4803439
:1051800000E00127574502DDA7EB0A0000E0002000
:1051900000EB0A01009005984144401A0590E00395
:1051A00006D45B462146179A059800F0B3F90544EA
:1051B000002706E001A85A46C05D179990476D1C6C
:1051C0007F1C4745F6DBE0030CD55B462146179A6A
:1051D000059800F09FF9054404E030205A461799DD
:1051E00090476D1C0099481E00900029F5DC08E0EE
:1051F000029802995A460078491C029117999047E3
:105200006D1CBAF10001AAF1010AF1DC65E10000B0
:10521000092801003031323334353637383961628C
:105220006364656600000000303132333435363750
:1052300038394142434445460000000000F058F927
:105240000544761C307800287FF4ECAD19B0284670
:10525000BDE8F08F620700D4062709F1070222F0AB
:10526000070CFCE80223E14603F000485FEA080C63
:1052700002D00FF2702C0DE05FEA045C02D50FF251
:10528000682C07E05FEAC47C02D00FF2602C01E0DA
:10529000AFF2700C4FF0FF3823F00043CDF850C050
:1052A00065280CD006DC452809D046281DD04728A3
:1052B0003DD13DE0662818D067287ED138E0002136
:1052C000112F01DB112000E0781CCDE9000106A9B7
:1052D0000EA8FFF7DDFCDDE90F010E9A0391002116
:1052E000009207F1010A04914DE04FF00040009751
:1052F000CDE9011006A90EA8FFF7CAFCDDE90F02EF
:1053000003920E9B11990022DDF80CA000930492E9
:1053100011B9791C00EB010AB7EB0A0004D4C0F103
:10532000FF3007F1010A0490AAEB0700019044E066
:10533000012F00DA01270021112F01DD112000E0EB
:105340003846CDE9000106A90EA8FFF7A1FCDDE96A
:105350000F010E9A0391002104910092BA46210791
:105360000CD40399514500DA8A46BAF1010F05DDE4
:10537000009AAAF10101515C302908D0B84202DA42
:1053800010F1040F06DA0121CDE9011015E0AAF1B0
:105390000101E9E7002805DC049901440491AAEB26
:1053A000000102E0411C514500DD8A460499401A83
:1053B000401C01904FF000400290200704D4019857
:1053C000504501DBCDF8048000208DF84F00029895
:1053D0000DF14F07B0F1004F25D02B200E90029811
:1053E0004FF0020800280CDA404202902D200E9067
:1053F00007E00A210298FBF744F83031029007F8E1
:10540000011DB8F10001A8F10108F2DC02980028A2
:10541000EFD1791E0E980870307800F0200040F02F
:10542000450007F8020D12A8C01B00F107081498E8
:10543000007800B1012000EB0A01019801EBE07156
:1054400005984144401A401E0590E00306D45B468F
:105450002146179A059800F05DF8054414980078E5
:1054600018B15A46179990476D1CE00324D55B4646
:105470002146179A059800F04DF805441CE0049861
:10548000002807DBDDE90301884203DD0098405C6A
:10549000179901E0179930205A469047049805F172
:1054A0000105401C04900198401E019004D12E205B
:1054B0005A46179990476D1CBAF10001AAF1010AEA
:1054C000DDDC05E017F8010B5A46179990476D1C73
:1054D000B8F10001A8F10108F4DC5B462146179AF7
:1054E0000598ABE62D0000002B0000002000000016
:1054F0002DE9F041044600251E461746880404D4D1
:1055000005E039462020B0476D1C641EF9D52846B9
:10551000BDE8F0812DE9F041044600251E46904685
:10552000C80301D5302700E02027880404D505E012
:1055300041463846B0476D1C641EF9D52846BDE883
:10554000F08100002DE9F04F2DED028BADF5257DAA
:105550008246002600254FF48041002003F0A6FE7D
:105560000E900E9848B9A2A0FFF772FB11200DF51E
:10557000257DBDEC028BBDE8F08F0020A3490860BB
:10558000A3490870FF20A34908700A22514610A8B9
:1055900002F082F804464CB121469FA0FFF758FB69
:1055A00000200E9903F070FE2046E0E7A2488068D4
:1055B000A24948434FF4806101EB40084246002372
:1055C00010A801F076FB044624B90022134610A867
:1055D00001F06FFB2C2103A8FAF76DFE0FAB2C2214
:1055E00003A910A802F01CFC044614B90F982C283B
:1055F0000BD010A801F097FA91A0FFF729FB00202B
:105600000E9903F041FE0120B1E70F98064493A0E4
:105610001021CDE900109648438802888C210A2089
:10562000FCF7ACFB93A0FFF713FB5AE07948007836
:10563000FF2856D0774890F800B0FF2075490870D1
:105640004FF40057E9197C488068401C7B4A50435E
:10565000814205D978488068401C11464843471B61
:105660000BEBCB218B4A02EBC1003A460E9900F0BE
:1056700071F94FEA47090FAB4A4610A80E9902F09C
:10568000CFFB044614B90F98484508D02246594626
:1056900081A0FFF7DDFA01205D4908702CE00F982A
:1056A00006443D44594800683844584908608148D8
:1056B000B5FBF0F100FB115050B9642005FB00F17F
:1056C0005D488068401C5D4A5043B1FBF0F000BF6C
:1056D0007948006808B9012000E000207649086098
:1056E00000BF55488068401C54494843A84203D92C
:1056F00047480078002899D000BF00216F48FFF785
:1057000024F800216E48FBF7D9FB00216D48FBF718
:10571000E0F801203E4908700022134610A801F06D
:10572000C8FA6800012310224449009003A800F041
:10573000B1FC0FAB2C2203A910A802F071FB32467A
:10574000002310A801F0B5FA10A802F0FEFA10A884
:1057500001F0E9F900200E9903F096FD002C39D1F3
:1057600059A0FFF775FA31465FA0FFF771FA00EE16
:10577000105AB8EE400ADFED620A80EE201A11EEF0
:10578000107A3846FAF76AFE41EC180B53EC182BE6
:105790005CA0FFF75DFA62A01021CDE9001034484B
:1057A000438802888C210A20FCF7E8FA5FA01021C8
:1057B000CDE900102E4843880288A0210A20FCF77A
:1057C000DDFA102008233246A02100903A20FCF791
:1057D0008BFA0AE05AA01021CDE900102448438832
:1057E00002888C210A20FCF7C9FA2046BFE6000097
:1057F0004D616C6C6F632070636D5F62756666658A
:1058000072206661696C6564210D0A004880002081
:105810004C800020458000204661696C65642074DE
:105820006F20637265617465205741562066696C0C
:10583000653A2025640A00004C820020C027090038
:10584000577269746520656D70747920686561644C
:105850006572206661696C6564210A005265636F38
:105860007264696E67204144432E2E2E00000000B2
:105870006C8000205265636F7264696E67204144DA
:1058800043206461746120746F205741562E2E2E80
:105890000A000000340000205772697465204144FA
:1058A00043206275662564206661696C65643A20F0
:1058B00025640A00E0930400A482424200040040F0
:1058C00010640240002001404144432057415620CB
:1058D0007361766564207375636365737366756C55
:1058E0006C79210A0000000046696C652073697AB2
:1058F000653A20256C752062797465730A00000092
:10590000007C12495265636F726420647572617421
:10591000696F6E3A20252E326620730A000000005F
:1059200057415620736176656421000053697A659A
:105930003A2020202020202020202020420000008B
:105940005741562073617665206661696C656421F4
:105950000000000030B50346002008E033F8105086
:10596000A5F50064240125B221F81050401C904296
:10597000F4D330BD2DE9F04704460D4690469946D4
:10598000AD1EE06A00EB153AC5F3C80605F0070145
:1059900001208840C7B200BF51460AF1010A2046E3
:1059A00003F082FB10B10120BDE8F08700BF00BF0B
:1059B00004F13400805D384008B1012000E000208F
:1059C000484501D10220EFE704F13400805D7840C2
:1059D00004F1340188550120E070A8F10100B0F114
:1059E000000800D1E0E77806000E071EE0D101278D
:1059F000701C0646B0F5007FD9D3CDE770B50446DC
:105A00000D460020E070401E20632946204603F02A
:105A10004BFB08B1042070BD04F2322003F0CBF838
:105A20004AF65521884201D00320F4E704F16A00C8
:105A300003F084F820F07F400D49884201D1002016
:105A4000E9E704F1860003F079F820F07F40084987
:105A5000884201D10020DEE7082206A104F13700C8
:105A600003F0FAFA08B90120D5E70220D3E70000D5
:105A70004641540045584641542020200000000073
:105A8000024600E0521C107810B110788842F9D11B
:105A9000107870472DE9F84F824615461E46DAF811
:105AA00000000090DAF8480000F104094FF4007299
:105AB000002328463146FAF783FB07460098B0F8E2
:105AC0000AC0624600233846FAF77AFB834600BFD5
:105AD00059F8044B14B90020BDE8F88FA34500D253
